:04000000F1EF02F02A
:08000800046ED8CF05F0E0CF33
:1000100006F00001E9CF0CF0EACF07F0E1CF08F0DD
:10002000E2CF09F0D9CF0AF0DACF0BF0F3CF12F01C
:10003000F4CF13F0FACF14F000C00EF001C00FF0AF
:1000400002C010F003C011F09DAA2AEF00F09EBA82
:100050002BEF01F00EC000F00FC001F010C002F055
:1000600011C003F00CC0E9FF07C0EAFF078E08C00B
:10007000E1FF09C0E2FF0AC0D9FF0BC0DAFF12C0DE
:10008000F3FF13C0F4FF14C0FAFF045006C0E0FFF2
:1000900005C0D8FF1000516A526A010E536EDA6A29
:1000A000D96A566A490E556EEA6A4D0EE96E56C017
:1000B000E2FF55C0E1FF53C054F0D890E550EE0286
:1000C000F3505122F4505222542EF7D751C0DEFF84
:1000D00052C051F0526AD8B0522A552AD8B4562A82
:1000E000532A53500508E0E112003F6A3E6A3D6A18
:1000F0003C6A406A416A010E426EEA6A370EE96E56
:10010000E90604009EAAFDD7AECFECFF0D0EEF5C12
:10011000F8E1EC6A416A415004080DE3036A41507A
:10012000370FE96E000E0320EA6EEF500D08D8B4C9
:1001300002D0412AF0D7010E415C406E405252E09D
:10014000036A4050370FE96E000E0320EA6EEF504D
:100150005F0B39080EE2036A4050370FE96E000E5C
:100160000320EA6E370EEF5C006E016A026A036AD2
:100170000DD0036A4050370FE96E000E0320EA6E7F
:10018000300EEF5C006E016A026A036A03C046F03B
:1001900002C045F001C044F000C043F0EACF48F08F
:1001A000E9CF47F003C04CF002C04BF001C04AF069
:1001B00000C049F0506A4F6A4E6A42C04DF06BDF92
:1001C00048C0EAFF47C0E9FF00503C2601503D22ED
:1001D00002503E2203503F2242500A0DF3CF42F01C
:1001E0004006ACD737505F0B390807E2370E375C53
:1001F000006E016A026A036A06D0300E375C006E38
:10020000016A026A036A03C046F002C045F001C0F9
:1002100044F000C043F003C04CF002C04BF001C0FA
:100220004AF000C049F0506A4F6A4E6A42C04DF031
:1002300032DF00503C2601503D2202503E22035046
:100240003F223CC000F03DC001F03EC002F03FC084
:1002500003F02CEF01F049D703C019F002C018F0E9
:1002600001C017F000C016F09E9A2AEF00F0EA6A6B
:100270001F0EE96EEF500DE0060E016E006A002EB3
:10028000FED7012EFBD77B0E006E002EFED7EF2E81
:10029000F3D712008E0E006E27C001F026C002F0C8
:1002A000036A015209E102C001F0026A080E005E11
:1002B000015202E1006A08D0D89001BE04D0023693
:1002C00001360006F9D7019E21EF02F02650D8B47E
:1002D00071D0006E2A50D8B46DD0002604E3810E90
:1002E000002668E204D07F0E005E64E363E027C06E
:1002F0002EF02B502E1A278E2B8E29502D02F4CF44
:1003000030F028502C02F4CF03F0F3CF2FF02D0261
:10031000F3503026F4502F22000E032229502C02D5
:10032000F3503026F4502F22000E026A03220222DC
:1003300027502D02F3502F26F4500322000E0222E4
:1003400027502C02F3500326F4500222000E016ABB
:10035000012229502B02F3502F26F4500322000EC5
:100360000222012228502B02F3500326F4500222CD
:10037000000E012227502B02F3500226F4500122D6
:10038000002A01BE05D02F3603360236013600069C
:10039000000E2FAE0AD0032A02220122015005E1ED
:1003A000025003E1035001E1002A2EBE018E2EAE61
:1003B000019E04D0006A016A026A036A3AEF02F001
:1003C0002650B608266E036A27C02AF0278ED890DA
:1003D0002732283229320332023201320032262EED
:1003E000F6D72AAE0BD0001E011E021E031E002AE5
:1003F000D8B4012AD8B4022AD8B4032A43EF02F0B1
:10040000216A206A1F6A1E6A256A246A236A226A90
:10041000939E8A8E200E006E002EFED700D0000024
:10042000939E8A9E938681A6FDD7CF6ACE6A9386D5
:1004300081B6FDD7CE50CFCF03F0266ECFCF27F0B9
:1004400029D703C021F002C020F001C01FF000C076
:100450001EF021C029F020C028F01FC027F01EC0C8
:1004600026F09F0E2D6E710E2C6E610E2B6E760E89
:100470002A6E2CD703C029F002C028F001C027F053
:1004800000C026F09DD703C025F002C024F001C0B3
:1004900023F000C022F022C000F023C001F024C0ED
:1004A00002F025C003F01EEF03F0D8B203D0EA6AD1
:1004B000320EE96E006A016A026A036A326A336ABE
:1004C000346A356A315030102F102E102CE0200E77
:1004D000366ED8902A362B362C362D3632363336B9
:1004E000343635363150355C08E13050345C05E146
:1004F0002F50335C02E12E50325C0FE32E50325EFF
:100500002F50D8A02F3C335E3050D8A0303C345E02
:100510003150D8A0313C355ED880003601360236E5
:100520000336362ED6D732C0EFFF33C0ECFF34C0CF
:10053000ECFF35C0ECFF1200E950226E3B0E296E35
:100540009A0E286ECA0E276E266A0A0E246ED8826C
:10055000EA6A1E0EE96E21C02DF020C02CF01FC0EB
:100560002BF01EC02AF029C031F028C030F027C07F
:100570002FF026C02EF099DF015000520FE12450D9
:10058000010A0CE022500BE00F0B245C01E00EE2AC
:1005900022BE0CD022BC03D0200E02D0226A300E24
:1005A0000026005004009EA8FDD7AD6ED89229C049
:1005B0002DF028C02CF027C02BF026C02AF0316A7D
:1005C000306A2F6A0A0E2E6E70DF03C029F002C057
:1005D00028F001C027F000C026F0242EB8D74CEF39
:1005E00003F0F86AD09E078E810EAF6EA60EAC6E39
:1005F000900EAB6E196A186A176A0A0E166EC180E1
:10060000C182C184C196070EB46E93908A80939282
:100610008A82800ED56E850ECD6EC00EF212D26A21
:100620009D8AF212640E1F6E22DE93908A9093923E
:100630008A921D6A1C6A1B6A1A6AE2D603C01DF000
:1006400002C01CF001C01BF000C01AF01D50195C64
:1006500011E30BE11C50185C0DE307E11B50175C24
:1006600009E303E116501A5C05E293908A90939295
:100670008A8204D093928A9293908A70956A1AC063
:100680008CFF410EE96E1DC021F01CC020F01BC084
:100690001FF01AC01EF050D70D0E04009EA8FDD703
:1006A000AD6E0A0E04009EA8FDD7AD6E020E1E6E42
:0E06B000960E1F6EDCDD1E2EFBD7BFD703009B
:020000040030CA
:0E00000000270D0E000081000FC00FE00F4022
:00000001FF
;PIC18F458
;CRC=267A  CREATED="01-mai-20 16:32"
