:04000000E2EF02F039
:08000800046ED8CF05F0E0CF33
:1000100006F00001E9CF0CF0EACF07F0E1CF08F0DD
:10002000E2CF09F0D9CF0AF0DACF0BF0F3CF12F01C
:10003000F4CF13F0FACF14F000C00EF001C00FF0AF
:1000400002C010F003C011F09DAA2AEF00F09EBA82
:1000500075EF00F00EC000F00FC001F010C002F00C
:1000600011C003F00CC0E9FF07C0EAFF078E08C00B
:10007000E1FF09C0E2FF0AC0D9FF0BC0DAFF12C0DE
:10008000F3FF13C0F4FF14C0FAFF045006C0E0FFF2
:1000900005C0D8FF1000B66BB76B010EB86FDA6AF7
:1000A000D96ABB6BAE0EBA6FEA6AB20EE96EBBC01C
:1000B000E2FFBAC0E1FFB8C0B9F0D890E550EE0257
:1000C000F350B623F450B723B92FF7D7B6C0DEFFED
:1000D000B7C0B6F0B76BD8B0B72BBA2BD8B4BB2B20
:1000E000B82BB8510508E0E11200A46BA36BA26B1A
:1000F000A16BEA6A9D0EE96EE90604009EAAFDD78F
:10010000AECFECFF0D0EEF5CF8E1EC6AA56BA551EC
:1001100003080DE3036AA5519D0FE96E000E03204D
:10012000EA6EEF500D0801E102D0A52BF0D7010EC9
:10013000A55DA66F010EA76FA65351E0036AA651F5
:100140009D0FE96E000E0320EA6EEF5039080EE2B3
:10015000036AA6519D0FE96E000E0320EA6E370E6A
:10016000EF5C006E016A026A036A0DD0036AA65151
:100170009D0FE96E000E0320EA6E300EEF5C006EFC
:10018000016A026A036A03C0ABF002C0AAF001C0B0
:10019000A9F000C0A8F0EACFADF0E9CFACF003C001
:1001A000B1F002C0B0F001C0AFF000C0AEF0B56B6E
:1001B000B46BB36BA7C0B2F06EDFADC0EAFFACC0EA
:1001C000E9FF0050A1270150A2230250A3230350AE
:1001D000A423A7510A0DF3CFA7F0A607ADD79D51D1
:1001E000390807E2370E9D5D006E016A026A036AF4
:1001F00006D0300E9D5D006E016A026A036A03C07C
:10020000ABF002C0AAF001C0A9F000C0A8F003C082
:10021000B1F002C0B0F001C0AFF000C0AEF0B56BFD
:10022000B46BB36BA7C0B2F036DF0050A12701500A
:10023000A2230250A3230350A423A4C019F0A3C0F7
:1002400018F0A2C017F0A1C016F09E9A2AEF00F095
:10025000EA6A850EE96EEF500DE0060E016E006A47
:10026000002EFED7012EFBD77B0E006E002EFED790
:10027000EF2EF3D712008E0E006E8DC001F08CC0F1
:1002800002F0036A015209E102C001F0026A080E9D
:10029000005E015202E1006A08D0D89001BE04D08D
:1002A000023601360006F9D7019E12EF02F08C519A
:1002B000D8B471D0006E9051D8B46DD0002604E34C
:1002C000810E002668E204D07F0E005E64E363E0E6
:1002D0008DC094F09151941B8D8F918F8F5193030A
:1002E000F4CF96F08E519203F4CF03F0F3CF95F054
:1002F0009303F3509627F4509523000E03228F5159
:100300009203F3509627F4509523000E026A0322BD
:1003100002228D519303F3509527F4500322000ECF
:1003200002228D519203F3500326F4500222000E54
:10033000016A01228F519103F3509527F450032253
:10034000000E022201228E519103F3500326F45035
:100350000222000E01228D519103F3500226F45027
:100360000122002A01BE05D0953703360236013638
:100370000006000E95AF0AD0032A02220122015086
:1003800005E1025003E1035001E1002A94BF018E10
:1003900094AF019E04D0006A016A026A036A2BEFDF
:1003A00002F08C51B6088C6F036A8DC090F08D8F6F
:1003B000D8908D338E338F330332023201320032C4
:1003C0008C2FF6D790AF0BD0001E011E021E031E0D
:1003D000002AD8B4012AD8B4022AD8B4032A34EFA8
:1003E00002F0876B866B856B846B8B6B8A6B896B7A
:1003F000886B939E8A8E200E006E002EFED700D052
:100400000000939E8A9E938681A6FDD7CF6ACE6A0E
:10041000938681B6FDD7CE50CFCF03F08C6FCFCF70
:100420008DF029D703C087F002C086F001C085F0A7
:1004300000C084F087C08FF086C08EF085C08DF03C
:1004400084C08CF09F0E936F710E926F610E916F4E
:10045000760E906F2CD703C08FF002C08EF001C0D3
:100460008DF000C08CF09DD703C08BF002C08AF0E5
:1004700001C089F000C088F088C000F089C001F098
:100480008AC002F08BC003F063EF03F0D8B203D050
:10049000EA6A980EE96E006A016A026A036A986B5A
:1004A000996B9A6B9B6B97519611951194112CE057
:1004B000200E9C6FD89090379137923793379837AA
:1004C00099379A379B3797519B5D08E196519A5D12
:1004D00005E19551995D02E19451985D0FE39451C6
:1004E000985F9551D8A0953D995F9651D8A0963DBB
:1004F0009A5F9751D8A0973D9B5FD8800036013610
:10050000023603369C2FD6D798C0EFFF99C0ECFF78
:100510009AC0ECFF9BC0ECFF1200E950886F3B0EC5
:100520008F6F9A0E8E6FCA0E8D6F8C6B0A0E8A6F4C
:10053000D882EA6A840EE96E87C093F086C092F092
:1005400085C091F084C090F08FC097F08EC096F077
:100550008DC095F08CC094F099DF015000520FE1EE
:100560008A51010A0CE088510BE00F0B8A5D01E013
:100570000EE288BF0CD088BD03D0200E02D0886B5D
:10058000300E0026005004009EA8FDD7AD6ED89214
:100590008FC093F08EC092F08DC091F08CC090F01F
:1005A000976B966B956B0A0E946F70DF03C08FF09C
:1005B00002C08EF001C08DF000C08CF08A2FB8D739
:1005C000ABEF03F0F86AD09E078E810EAF6EA60ED9
:1005D000AC6E900EAB6E196A186A176A460E166EEC
:1005E000816B806B7F6B7E6BC180C182C184C19641
:1005F000070EB46E34D064001A000102030405062D
:1006000007080910111213141516171819202122A2
:1006100023242526272829303132333435363738FC
:10062000394041424344454647484950515253544A
:1006300055565758596061626364656667686970AA
:1006400071727374757677787980818283848586F8
:100650008788899091929394959697989900000E27
:10066000F86E050EF76EF60EF66E0900F550006E88
:10067000000A13E00900F550016EE8BE05D00F0B2B
:10068000EA6E0900F5CFE9FF01BC090001AC0900E1
:10069000F5CFEEFF004EE9D7F9D7F86A93908A803C
:1006A00093928A82800ED56E850ECD6EC00EF212A8
:1006B000D26A9D8AF212C80E856FCADD93908A9025
:1006C00093928A928ED603C081F002C080F001C05E
:1006D0007FF000C07EF08151195C11E30BE1805185
:1006E000185C0DE307E17F51175C09E303E1165045
:1006F0007E5D05E293928A9293908A8004D09390D3
:100700008A9093928A72815338E1805336E17F5305
:1007100034E17E51640831E396908D901A0E7E2567
:10072000E96E000E7F21EA6EEFCF84F0956A84C0F7
:100730008CFF020E846F960E856F8ADD842FFBD7A7
:10074000410EE96E81C087F080C086F07FC085F0E1
:100750007EC084F0E2D60D0E04009EA8FDD7AD6EDB
:100760000A0E04009EA8FDD7AD6E020E846F960E91
:10077000856F6EDD842FFBD76AD096908D80D892DE
:1007800081C093F080C092F07FC091F07EC090F065
:10079000976B966B956B640E946F78DE00C082F059
:1007A0008251640DF3507E5D846F000E7F59856F1A
:1007B000000E8059866F000E8159876FD892936F13
:1007C00086C092F085C091F084C090F0976B966BD4
:1007D000956B0A0E946F5ADE00C083F0D89281C0E8
:1007E00093F080C092F07FC091F07EC090F0976B44
:1007F000966B956B640E946F49DE03C087F002C060
:1008000086F001C085F000C084F0843785378637D4
:1008100087378437853786378737843785378637F4
:1008200087378437853786378737F00E84178351AB
:100830008427000E852386238723956A84C08CFF36
:10084000020E846F960E856F03DD842FFBD73AD797
:020850000300A3
:020000040030CA
:0E00000000220D0E000081000FC00FE00F4027
:00000001FF
;PIC18F458
;CRC=7513  CREATED="05-mai-20 17:44"
