:04000000EFEF02F02C
:08000800046ED8CF05F0E0CF33
:1000100006F00001E9CF0CF0EACF07F0E1CF08F0DD
:10002000E2CF09F0D9CF0AF0DACF0BF0F3CF12F01C
:10003000F4CF13F0FACF14F000C00EF001C00FF0AF
:1000400002C010F003C011F09DAA2AEF00F09EBA82
:1000500029EF01F00EC000F00FC001F010C002F057
:1000600011C003F00CC0E9FF07C0EAFF078E08C00B
:10007000E1FF09C0E2FF0AC0D9FF0BC0DAFF12C0DE
:10008000F3FF13C0F4FF14C0FAFF045006C0E0FFF2
:1000900005C0D8FF1000536A546A010E556EDA6A23
:1000A000D96A586A4B0E576EEA6A4F0EE96E58C00D
:1000B000E2FF57C0E1FF55C056F0D890E550EE0280
:1000C000F3505322F4505422562EF7D753C0DEFF7C
:1000D00054C053F0546AD8B0542A572AD8B4582A76
:1000E000552A55500508E0E11200416A406A3F6A0E
:1000F0003E6A426A436A010E446EEA6A390EE96E4C
:10010000E90604009EAAFDD7AECFECFF0D0EEF5C12
:10011000F8E1EC6A436A435004080DE3036A435074
:10012000390FE96E000E0320EA6EEF500D08D8B4C7
:1001300002D0432AF0D7010E435C426E425251E096
:10014000036A4250390FE96E000E0320EA6EEF5049
:1001500039080EE2036A4250390FE96E000E03209F
:10016000EA6E370EEF5C006E016A026A036A0DD018
:10017000036A4250390FE96E000E0320EA6E300E1A
:10018000EF5C006E016A026A036A03C048F002C0B5
:1001900047F001C046F000C045F0EACF4AF0E9CF91
:1001A00049F003C04EF002C04DF001C04CF000C059
:1001B0004BF0526A516A506A44C04FF06CDF4AC03B
:1001C000EAFF49C0E9FF00503E2601503F2202509D
:1001D00040220350412244500A0DF3CF44F042061E
:1001E000ADD73950390807E2370E395C006E016A25
:1001F000026A036A06D0300E395C006E016A026A38
:10020000036A03C048F002C047F001C046F000C0D6
:1002100045F003C04EF002C04DF001C04CF000C0EC
:100220004BF0526A516A506A44C04FF034DF0050BC
:100230003E2601503F2202504022035041223EC040
:1002400000F03FC001F040C002F041C003F02AEFCF
:1002500001F04BD703C019F002C018F001C017F02D
:1002600000C016F09E9A2AEF00F0EA6A210EE96EAD
:10027000EF500DE0060E016E006A002EFED7012E33
:10028000FBD77B0E006E002EFED7EF2EF3D71200A9
:100290008E0E006E29C001F028C002F0036A0152E0
:1002A00009E102C001F0026A080E005E015202E19B
:1002B000006A08D0D89001BE04D00236013600068C
:1002C000F9D7019E1FEF02F02850D8B471D0006E0C
:1002D0002C50D8B46DD0002604E3810E002668E2CD
:1002E00004D07F0E005E64E363E029C030F02D503F
:1002F000301A298E2D8E2B502F02F4CF32F02A5037
:100300002E02F4CF03F0F3CF31F02F02F350322658
:10031000F4503122000E03222B502E02F3503226CD
:10032000F4503122000E026A0322022229502F02C9
:10033000F3503126F4500322000E022229502E02DF
:10034000F3500326F4500222000E016A01222B50C2
:100350002D02F3503126F4500322000E0222012216
:100360002A502D02F3500326F4500222000E0122DF
:1003700029502D02F3500226F4500122002A01BE1A
:1003800005D031360336023601360006000E31AE96
:100390000AD0032A02220122015005E1025003E1A2
:1003A000035001E1002A30BE018E30AE019E04D020
:1003B000006A016A026A036A38EF02F02850B60840
:1003C000286E036A29C02CF0298ED89029322A324F
:1003D0002B320332023201320032282EF6D72CAEF5
:1003E0000BD0001E011E021E031E002AD8B4012AD3
:1003F000D8B4022AD8B4032A41EF02F0236A226A51
:10040000216A206A276A266A256A246A939E8A8E50
:10041000200E006E002EFED700D00000939E8A9E14
:10042000938681A6FDD7CF6ACE6A938681B6FDD723
:10043000CE50CFCF03F0286ECFCF29F029D703C0FD
:1004400023F002C022F001C021F000C020F023C040
:100450002BF022C02AF021C029F020C028F09F0EE6
:100460002F6E710E2E6E610E2D6E760E2C6E2CD7A9
:1004700003C02BF002C02AF001C029F000C028F010
:100480009DD703C027F002C026F001C025F000C0B0
:1004900024F024C000F025C001F026C002F027C0DF
:1004A00003F01AEF03F0D8B203D0EA6A340EE96E13
:1004B000006A016A026A036A346A356A366A376A10
:1004C00033503210311030102CE0200E386ED8909E
:1004D0002C362D362E362F363436353636363736E0
:1004E0003350375C08E13250365C05E13150355C01
:1004F00002E13050345C0FE33050345E3150D8A00C
:10050000313C355E3250D8A0323C365E3350D8A0F4
:10051000333C375ED8800036013602360336382E3B
:10052000D6D734C0EFFF35C0ECFF36C0ECFF37C084
:10053000ECFF1200E950246E3B0E2B6E9A0E2A6ED1
:10054000CA0E296E286A0A0E266ED882EA6A200E22
:10055000E96E23C02FF022C02EF021C02DF020C064
:100560002CF02BC033F02AC032F029C031F028C063
:1005700030F099DF015000520FE12650010A0CE0E3
:1005800024500BE00F0B265C01E00EE224BE0CD0E1
:1005900024BC03D0200E02D0246A300E0026005066
:1005A00004009EA8FDD7AD6ED8922BC02FF02AC0B4
:1005B0002EF029C02DF028C02CF0336A326A316A3F
:1005C0000A0E306E70DF03C02BF002C02AF001C0AB
:1005D00029F000C028F0262EB8D768EF03F0F86A9B
:1005E000D09E078E810EAF6EA60EAC6E900EAB6ED7
:1005F000196A186A176A0A0E166EC180C182C18410
:10060000C196070EB46E93908A8093928A82850E6B
:10061000CD6EC00EF212D26A9D8AF212640E216E65
:1006200024DE93908A9093928A921D6A1C6A1B6AB8
:100630001A6AE4D603C01DF002C01CF001C01BF012
:1006400000C01AF01D50195C11E30BE11C50185C3E
:100650000DE307E11B50175C09E303E116501A5C38
:1006600005E293928A9293908A8004D093908A9024
:1006700093928A721D523EE11C523CE11B523AE1B8
:100680001A50990837E31D5213E11C5211E11B5215
:100690000FE11A5009080CE396908D90956A1AC0E4
:1006A0008CFF020E206E960E216EDFDD202EFBD712
:1006B00096908D90956A1AC08CFF410EE96E1DC010
:1006C00023F01CC022F01BC021F01AC020F032D74A
:1006D0000D0E04009EA8FDD7AD6E0A0E04009EA864
:1006E000FDD7AD6E020E206E960E216EBEDD202E61
:1006F000FBD740D096908D80D8921DC02FF01CC0A3
:100700002EF01BC02DF01AC02CF0336A326A316A09
:10071000640E306EC8DE00C01EF01E50640DF35033
:100720001A5C206E000E1B58216E000E1C58226EA3
:10073000000E1D58236ED8922F6E22C02EF021C0BD
:100740002DF020C02CF0336A326A316A0A0E306E06
:10075000AADE00C01FF01E38006EF00E001600501A
:100760001F24956A8C6E020E206E960E216E7DDD22
:08077000202EFBD75ED7030029
:020000040030CA
:0E00000000220D0E000081000FC00FE00F4027
:00000001FF
;PIC18F458
;CRC=34F5  CREATED="05-mai-20 14:53"
