:1000000067EF01F0EA6A0C0EE96EEF500DE0060EA4
:10001000016E006A002EFED7012EFBD77B0E006E0C
:10002000002EFED7EF2EF3D712008E0E006E14C0F6
:1000300001F013C002F0036A015209E102C001F0AD
:10004000026A080E005E015202E1006A08D0D890F0
:1000500001BE04D0023601360006F9D7019EECEF4E
:1000600000F01350D8B471D0006E1750D8B46DD0D2
:10007000002604E3810E002668E204D07F0E005EB5
:1000800064E363E014C01BF018501B1A148E188E22
:1000900016501A02F4CF1DF015501902F4CF03F0D8
:1000A000F3CF1CF01A02F3501D26F4501C22000E50
:1000B000032216501902F3501D26F4501C22000E84
:1000C000026A0322022214501A02F3501C26F45032
:1000D0000322000E022214501902F3500326F4509A
:1000E0000222000E016A012216501802F3501C264B
:1000F000F4500322000E0222012215501802F35080
:100100000326F4500222000E012214501802F3506C
:100110000226F4500122002A01BE05D01C36033607
:10012000023601360006000E1CAE0AD0032A022257
:100130000122015005E1025003E1035001E1002AD0
:100140001BBE018E1BAE019E04D0006A016A026ACA
:10015000036A05EF01F01350B608136E036A14C06A
:1001600017F0148ED8901432153216320332023240
:1001700001320032132EF6D717AE0BD0001E011E2F
:10018000021E031E002AD8B4012AD8B4022AD8B409
:10019000032A0EEF01F00E6A0D6A0C6A0B6A126AEE
:1001A000116A106A0F6A939E8A8E200E006E002ECE
:1001B000FED700D00000939E8A9E938681A6FDD72D
:1001C000CF6ACE6A938681B6FDD7CE50CFCF03F0EB
:1001D000136ECFCF14F029D703C00EF002C00DF07C
:1001E00001C00CF000C00BF00EC016F00DC015F0F1
:1001F0000CC014F00BC013F09F0E1A6E710E196E26
:10020000610E186E760E176E2CD703C016F002C062
:1002100015F001C014F000C013F09DD703C012F018
:1002200002C011F001C010F000C00FF00FC000F0CC
:1002300010C001F011C002F012C003F08EEF01F007
:10024000D8B203D0EA6A170EE96E006A016A026A40
:10025000036A176A186A196A1A6A16501510141078
:1002600013102CE0200E1B6ED8900F36103611366E
:1002700012361736183619361A3616501A5C08E137
:100280001550195C05E11450185C02E11350175C1D
:100290000FE31350175E1450D8A0143C185E15508D
:1002A000D8A0153C195E1650D8A0163C1A5ED8800E
:1002B00000360136023603361B2ED6D717C0EFFFA5
:1002C00018C0ECFF19C0ECFF1AC0ECFF1200F86A6E
:1002D000D09E810EAF6EA60EAC6E900EAB6EC1803E
:1002E000C182C184C196070EB46E93908A809392A6
:1002F0008A82800ED56E850ECD6EC00EF212D26A45
:100300009D8AF212640E0C6E7DDE93908A90939219
:100310008A92086A076A066A056A3DD703C008F030
:1003200002C007F001C006F000C005F0085214E159
:10033000075212E1065210E1055099080DE396901C
:100340008D90956A05C08CFF020E0B6E960E0C6E9A
:1003500059DE0B2EFBD740D096908D80D89208C0E6
:1003600012F007C011F006C010F005C00FF0166AB9
:10037000156A146A640E136E63DF00C009F0095039
:10038000640DF350055C0B6E000E06580C6E000EEB
:1003900007580D6E000E08580E6ED892126E0DC0E2
:1003A00011F00CC010F00BC00FF0166A156A146A39
:1003B0000A0E136E45DF00C00AF00938006EF00E19
:1003C000001600500A24956A8C6E020E0B6E960E73
:0C03D0000C6E18DE0B2EFBD7A0D703002C
:020000040030CA
:0E00000000270D0E000081000FC00FE00F4022
:00000001FF
;PIC18F458
;CRC=838D  CREATED="02-mai-20 17:59"
