:04000000E1EF02F03A
:08000800046ED8CF05F0E0CF33
:1000100006F00001E9CF0CF0EACF07F0E1CF08F0DD
:10002000E2CF09F0D9CF0AF0DACF0BF0F3CF12F01C
:10003000F4CF13F0FACF14F000C00EF001C00FF0AF
:1000400002C010F003C011F09DAA2AEF00F09EBA82
:1000500075EF00F00EC000F00FC001F010C002F00C
:1000600011C003F00CC0E9FF07C0EAFF078E08C00B
:10007000E1FF09C0E2FF0AC0D9FF0BC0DAFF12C0DE
:10008000F3FF13C0F4FF14C0FAFF045006C0E0FFF2
:1000900005C0D8FF1000546A556A010E566EDA6A20
:1000A000D96A596A4C0E586EEA6A500EE96E59C008
:1000B000E2FF58C0E1FF56C057F0D890E550EE027D
:1000C000F3505422F4505522572EF7D754C0DEFF78
:1000D00055C054F0556AD8B0552A582AD8B4592A70
:1000E000562A56500508E0E11200426A416A406A09
:1000F0003F6AEA6A3B0EE96EE90604009EAAFDD754
:10010000AECFECFF0D0EEF5CF8E1EC6A436A4350B2
:1001100003080DE3036A43503B0FE96E000E032012
:10012000EA6EEF500D0801E102D0432AF0D7010E2C
:10013000435C446E010E456E445251E0036A4450E4
:100140003B0FE96E000E0320EA6EEF5039080EE215
:10015000036A44503B0FE96E000E0320EA6E370E2F
:10016000EF5C006E016A026A036A0DD0036A4450B4
:100170003B0FE96E000E0320EA6E300EEF5C006E5E
:10018000016A026A036A03C049F002C048F001C074
:1001900047F000C046F0EACF4BF0E9CF4AF003C089
:1001A0004FF002C04EF001C04DF000C04CF0536A59
:1001B000526A516A45C050F06EDF4BC0EAFF4AC038
:1001C000E9FF00503F2601504022025041220350D7
:1001D000422245500A0DF3CF45F04406ADD73B50BF
:1001E000390807E2370E3B5C006E016A026A036A57
:1001F00006D0300E3B5C006E016A026A036A03C0DF
:1002000049F002C048F001C047F000C046F003C00A
:100210004FF002C04EF001C04DF000C04CF0536AE8
:10022000526A516A45C050F036DF00503F260150F7
:100230004022025041220350422242C019F041C0E4
:1002400018F040C017F03FC016F09E9A2AEF00F059
:10025000EA6A230EE96EEF500DE0060E016E006AA9
:10026000002EFED7012EFBD77B0E006E002EFED790
:10027000EF2EF3D712008E0E006E2BC001F02AC0B5
:1002800002F0036A015209E102C001F0026A080E9D
:10029000005E015202E1006A08D0D89001BE04D08D
:1002A000023601360006F9D7019E12EF02F02A50FD
:1002B000D8B471D0006E2E50D8B46DD0002604E3AF
:1002C000810E002668E204D07F0E005E64E363E0E6
:1002D0002BC032F02F50321A2B8E2F8E2D50310220
:1002E000F4CF34F02C503002F4CF03F0F3CF33F0DE
:1002F0003102F3503426F4503322000E03222D50E5
:100300003002F3503426F4503322000E026A0322E6
:1003100002222B503102F3503326F4500322000EF8
:1003200002222B503002F3500326F4500222000E1A
:10033000016A01222D502F02F3503326F45003227C
:10034000000E022201222C502F02F3500326F450FB
:100350000222000E01222B502F02F3500226F450ED
:100360000122002A01BE05D033360336023601369B
:100370000006000E33AE0AD0032A022201220150E9
:1003800005E1025003E1035001E1002A32BE018E73
:1003900032AE019E04D0006A016A026A036A2BEF42
:1003A00002F02A50B6082A6E036A2BC02EF02B8E5C
:1003B000D8902B322C322D320332023201320032ED
:1003C0002A2EF6D72EAE0BD0001E011E021E031ED3
:1003D000002AD8B4012AD8B4022AD8B4032A34EFA8
:1003E00002F0256A246A236A226A296A286A276A2F
:1003F000266A939E8A8E200E006E002EFED700D0B5
:100400000000939E8A9E938681A6FDD7CF6ACE6A0E
:10041000938681B6FDD7CE50CFCF03F02A6ECFCFD3
:100420002BF029D703C025F002C024F001C023F02F
:1004300000C022F025C02DF024C02CF023C02BF0EA
:1004400022C02AF09F0E316E710E306E610E2F6E3B
:10045000760E2E6E2CD703C02DF002C02CF001C0FA
:100460002BF000C02AF09DD703C029F002C028F06D
:1004700001C027F000C026F026C000F027C001F020
:1004800028C002F029C003F00EEF03F0D8B203D069
:10049000EA6A360EE96E006A016A026A036A366A1F
:1004A000376A386A396A35503410331032102CE00C
:1004B000200E3A6ED8902E362F36303631363636FC
:1004C0003736383639363550395C08E13450385CC7
:1004D00005E13350375C02E13250365C0FE33250B5
:1004E000365E3350D8A0333C375E3450D8A0343C0D
:1004F000385E3550D8A0353C395ED880003601369C
:10050000023603363A2ED6D736C0EFFF37C0ECFF9F
:1005100038C0ECFF39C0ECFF1200E950266E3B0EEC
:100520002D6E9A0E2C6ECA0E2B6E2A6A0A0E286E3B
:10053000D882EA6A220EE96E25C031F024C030F07C
:1005400023C02FF022C02EF02DC035F02CC034F087
:100550002BC033F02AC032F099DF015000520FE176
:100560002850010A0CE026500BE00F0B285C01E03C
:100570000EE226BE0CD026BC03D0200E02D0266A86
:10058000300E0026005004009EA8FDD7AD6ED89214
:100590002DC031F02CC030F02BC02FF02AC02EF02F
:1005A000356A346A336A0A0E326E70DF03C02DF08A
:1005B00002C02CF001C02BF000C02AF0282EB8D7C2
:1005C0001200F86AD09E078E810EAF6EA60EAC6E3A
:1005D000900EAB6E196A186A176A460E166E1D6A7F
:1005E0001C6A1B6A1A6AC180C182C184C196070E47
:1005F000B46E93908A8093928A82800ED56E850E17
:10060000CD6EC00EF212D26A9D8AF212C80E236E0F
:100610001FDE93908A9093928A92E3D603C01DF0D6
:1006200002C01CF001C01BF000C01AF01D50195C84
:1006300011E30BE11C50185C0DE307E11B50175C44
:1006400009E303E116501A5C05E293928A929390B3
:100650008A8004D093908A9093928A721D526EE1A0
:100660001C526CE11B526AE11A50640867E39690D1
:100670008D90D8921DC031F01CC030F01BC02FF0FF
:100680001AC02EF0356A346A336A0A0E326EFEDE04
:1006900000C01EF01E500A0DF3501A5C1F6ED89257
:1006A0001DC031F01CC030F01BC02FF01AC02EF05E
:1006B000356A346A336A0A0E326EE8DE03C025F00A
:1006C00002C024F001C023F000C022F022362336FD
:1006D000243625362236233624362536223623364E
:1006E000243625362236233624362536F00E2216B9
:1006F0001F502226000E232224222522956A22C082
:100700008CFF410EE96E1DC025F01CC024F01BC0FB
:1007100023F01AC022F001DF0D0E04009EA8FDD7C1
:10072000AD6E0A0E04009EA8FDD7AD6E020E226EBD
:10073000960E236E8DDD222EFBD77FD096908D8076
:10074000D8921DC031F01CC030F01BC02FF01AC071
:100750002EF0356A346A336A640E326E97DE00C05A
:1007600020F02050640DF3501A5C226E000E1B58CE
:10077000236E000E1C58246E000E1D58256ED89254
:10078000316E24C030F023C02FF022C02EF0356A25
:10079000346A336A0A0E326E79DE00C021F0D892D4
:1007A0001DC031F01CC030F01BC02FF01AC02EF05D
:1007B000356A346A336A640E326E68DE03C025F02F
:1007C00002C024F001C023F000C022F022362336FC
:1007D000243625362236233624362536223623364D
:1007E000243625362236233624362536F00E2216B8
:1007F00021502226000E232224222522956A22C07F
:100800008CFF410EE96E1DC025F01CC024F01BC0FA
:1008100023F01AC022F081DE0D0E04009EA8FDD741
:10082000AD6E0A0E04009EA8FDD7AD6E020E226EBC
:0E083000960E236E0DDD222EFBD7EFD60300B1
:020000040030CA
:0E00000000220D0E000081000FC00FE00F4027
:00000001FF
;PIC18F458
;CRC=E283  CREATED="09-mai-20 13:52"
