:0400000065EF01F0B7
:08000800046ED8CF05F0E0CF33
:1000100006F00001E9CF0CF0EACF07F0E1CF08F0DD
:10002000E2CF09F0D9CF0AF0DACF0BF0F3CF12F01C
:10003000F4CF13F0FACF14F000C00EF001C00FF0AF
:1000400002C010F003C011F09DAA2AEF00F09EBA82
:1000500065EF01F00EC000F00FC001F010C002F01B
:1000600011C003F00CC0E9FF07C0EAFF078E08C00B
:10007000E1FF09C0E2FF0AC0D9FF0BC0DAFF12C0DE
:10008000F3FF13C0F4FF14C0FAFF045006C0E0FFF2
:1000900005C0D8FF1000EA6A330EE96EEF500DE09C
:1000A000060E016E006A002EFED7012EFBD77B0ED6
:1000B000006E002EFED7EF2EF3D712008E0E006ECC
:1000C0003BC001F03AC002F0036A015209E102C0EC
:1000D00001F0026A080E005E015202E1006A08D0D7
:1000E000D89001BE04D0023601360006F9D7019E31
:1000F00012003A50D8B471D0006E3E50D8B46DD0D2
:10010000002604E3810E002668E204D07F0E005E24
:1001100064E363E03BC042F03F50421A3B8E3F8EA7
:100120003D504102F4CF44F03C504002F4CF03F084
:10013000F3CF43F04102F3504426F4504322000E23
:1001400003223D504002F3504426F4504322000E57
:10015000026A032202223B504102F3504326F4502C
:100160000322000E02223B504002F3500326F450BB
:100170000222000E016A01223D503F02F350432645
:10018000F4500322000E022201223C503F02F350A1
:100190000326F4500222000E01223B503F02F3508E
:1001A0000226F4500122002A01BE05D04336033650
:1001B000023601360006000E43AE0AD0032A0222A0
:1001C0000122015005E1025003E1035001E1002A40
:1001D00042BE018E42AE019E04D0006A016A026AEC
:1001E000036A12003A50B6083A6E036A3BC03EF00A
:1001F0003B8ED8903B323C323D32033202320132E8
:1002000000323A2EF6D73EAE0BD0001E011E021E63
:10021000031E002AD8B4012AD8B4022AD8B4032A6B
:100220001200356A346A336A326A396A386A376A60
:10023000366A939E8A8E200E006E002EFED700D066
:100240000000939E8A9E938681A6FDD7CF6ACE6AD0
:10025000938681B6FDD7CE50CFCF03F03A6ECFCF85
:100260003BF02CDF03C035F002C034F001C033F0A6
:1002700000C032F035C03DF034C03CF033C03BF03C
:1002800032C03AF09F0E416E710E406E610E3F6EAD
:10029000760E3E6E2EDF03C03DF002C03CF001C082
:1002A0003BF000C03AF09EDF03C039F002C038F0E6
:1002B00001C037F000C036F036C000F037C001F0A2
:1002C00038C002F039C003F01200F86AD09E078EE1
:1002D000810EAF6EA60EAC6E900EAB6EC180C18269
:1002E000C184C196070EB46E93908A8093928A82DD
:1002F000800ED56E850ECD6EC00EF212D26A9D8A2A
:10030000F212640E336EC7DE93908A9093928A92B3
:10031000316A306A2F6A2E6A84DF03C031F002C06E
:1003200030F001C02FF000C02EF031520EE13052FB
:100330000CE12F520AE12E50630807E393908A9054
:1003400093928A8296908D9006D093928A929390FF
:100350008A7096908D80956A2EC08CFF020E326E48
:0E036000960E336E98DE322EFBD7D6D70300F2
:020000040030CA
:0E00000000270D0E000081000FC00FE00F4022
:00000001FF
;PIC18F458
;CRC=234F  CREATED="30-avr.-20 17:04"
